:020000041000EA
:1000000000B5324B212058609868022188439860DF
:10001000D860186158612E4B002199600221596106
:100020000121F02299502B49196001219960352056
:1000300000F044F80222904214D00621196600F024
:1000400034F8196E01211966002018661A6600F04E
:100050002CF8196E196E196E052000F02FF8012189
:100060000842F9D1002199601B49196000215960AB
:100070001A491B48016001219960EB211966A021F2
:10008000196600F012F800219960164914480160C1
:100090000121996001BC002800D000471248134993
:1000A000086003C880F30888084703B5996A0420EC
:1000B0000142FBD001200142F8D103BD02B5186610
:1000C0001866FFF7F2FF186E186E02BD00000240BE
:1000D000000000180000070000035F00212200005C
:1000E000F4000018222000A00001001008ED00E03C
:1000F00000000000000000000000000074B24E7A12
:1001000000200420F7010010CB010010CD010010E9
:10011000C9010010C9010010C9010010C901001077
:10012000C9010010C9010010C9010010CF01001061
:10013000C9010010C9010010D1010010D301001045
:10014000C1010010C1010010C1010010C101001067
:10015000C1010010C1010010C1010010C101001057
:10016000C1010010C1010010C1010010C101001047
:10017000C1010010C1010010C1010010C101001037
:10018000C1010010C1010010C1010010C101001027
:10019000C1010010C1010010C1010010C101001017
:1001A000C1010010C1010010C1010010C101001007
:1001B000C1010010C1010010C1010010C1010010F7
:1001C000EFF30580103800BE00BE00BE00BE00BECA
:1001D00000BE00BEF2EB8871044200102042001005
:1001E0003802001090A31AE700201E49086006C8D4
:1001F00081F3088810471C480068002801D00020BF
:10020000F3E70DA40ECC002902D000F012F8F9E7B4
:100210001649174A002000E001C19142FCD115495E
:100220008847154988471549884700BEFDE701C939
:1002300001C29A42FBD3704720420010C000002048
:100240003802002098430010000004200000042021
:10025000984300100010042000100420000000004B
:100260007047000008ED00E0000000D038020020D8
:100270000C0600209D3900108102001095390010F5
:10028000F0B5C646D025802600B503F0A7FC2D06A4
:1002900000F03AF836020F2000F07CF8002201212D
:1002A0000F20AE6200F062F8164B002798466C688B
:1002B000142000F0F9FB344216D06B68334213D09F
:1002C0000127002003F08CFC0100831CEFD065287F
:1002D00014D064280ED0404603F09CFD6C681420B6
:1002E00000F0E2FB3442E8D1002F01D000F02AF800
:1002F0000027E6E7002000F017F8D8E7012000F01B
:1003000013F8D4E7083F0010192010B500F042F8A8
:10031000D02280210020034B1206890451621870FC
:10032000916110BD08060020054B80221870D02373
:1003300092041B06002801D05A6170479A61FCE7BD
:10034000080600200121084A13784B40137005D09D
:10035000D02380221B0692045A617047D02380224A
:100360001B0692049A61F8E708060020074B8000FC
:10037000C3181B68C90092000A435A400C2313405B
:10038000034A9446604403607047C04604C001407D
:1003900004D001400123D02283401206936293616E
:1003A000094A83009A1811684022514080320A405D
:1003B0000649C0008C4663441A60054B9C460523E1
:1003C000604443607047C04604C0014004D001400F
:1003D000004001400FB400B5084883B003F096FC1C
:1003E000049B002B07D005A91800019103F0B6FA71
:1003F000034803F08BFC012003F0C8FA203F0010F3
:100400001C3F001070B5EFF3108C72B60D4D2B68C9
:10041000002BFCD0BFF35F8F0724CB08C618C05C4D
:1004200001230C40A3401C000440034207D11843A1
:100430003070BFF35F8F2C608CF3108870BD10009C
:10044000FFF7C8FF2C0100D0044A1078431CDBB230
:10045000172B00D9102313707047C046E00100200D
:100460000021044B044ABFF35F8F02C39342FAD1C9
:100470007047C046000100D0800100D0054B064AFD
:100480001360064A136053609360D3601361536135
:10049000936170478080808000E400E004E400E025
:1004A0001F2318401E3B8340002905D0C021044A69
:1004B0004900535013607047802201498B50FAE77E
:1004C00000E100E010B5EFF3108C72B60F4A13682C
:1004D000002BFCD0BFF35F8F0D4B10309B6880006A
:1004E0001B580C4A934201D099420CD1084B9B688F
:1004F0001950BFF35F8FBFF35F8F0022034B1A6069
:100500008CF3108810BD00F0E1FDC046240100D03E
:1005100000ED00E0C1010010024B9C4661448900DF
:10052000016070474000003470B5114C114DAC4271
:100530000FD2FF262368002B0CD0FFF785FF0100A8
:100540002000FFF7E9FFA680BFF35F8F0834AC42BD
:10055000F0D370BDFFF778FF01002000FFF7DCFF4C
:100560002671BFF35F8F0834AC42E3D3F1E7C04696
:1005700030020020380200200A4B1968EFF3108087
:1005800072B60A68002AFCD0BFF35F8F1B68BFF306
:100590005F8F00221A6080F3108840BF0020002186
:1005A0007047C04604060020F0B5DE4657464E466A
:1005B0004546E0B587B0EFF30583032201251A40D5
:1005C000954091008846A946B34B03925C58B34BC3
:1005D0001D60B34B04934B46B24843630823E55E6A
:1005E000002D37DAA3881BB2002B00DBADE0A37926
:1005F000002B00D0EEE00823E05E002820DB430063
:1006000062691B18DB00D3189E68DD68731C00D17B
:1006100011E1A44801004144826A0B69B71A9B1A90
:100620009F4215D30123026A039883401A420FD0D8
:100630009C4800F05FFB8D4202DCCCD18642CAD9D7
:1006400040BF07B0F0BCBB46B246A946A046F0BDCD
:100650000E61EDE762696B0092465B19DB009A441C
:1006600053469E68DF6800F045FB8F42BADC00D13C
:1006700003E1002F00DAE8E05246534652691B6955
:100680009346049A934200D1D9E052460821605E15
:1006900052880004594610439847009001910099F0
:1006A000019A0B001000134300D1CEE013000A00A2
:1006B000B61A9F41002806DB7A4800F01BFB009E1B
:1006C000019F36184F4153469E60DF6000229A5EBC
:1006D000002A00DA86E7530099186069C9004118BA
:1006E00002938B68C9689B46B94200DD7AE702D164
:1006F000B34200D976E708239C46A4440595654695
:100700002281A446029B2C0006E053009918C900E0
:1007100041188D68C968AB469B18DB00C318B94205
:1007200006DC00D1B3E01C000023E25E002AECDA14
:10073000230064469C4653461A806346059D1D80EF
:10074000A3881BB2002B00DA51E72269EFF3108176
:1007500072B61368002BFCD0BFF35F8F0123A7880C
:100760005B42A3803FB22369BFF35F8F00221A6010
:1007700081F31088002F00DA39E7230008332200C4
:100780009A4666697B00DB19DB00F31899685046CE
:100790008C460824115FDD68002910DB029306E017
:1007A000AB4244D00023E15E2000002906DB4C0070
:1007B0006418E4003419E368AB42F1DD029B078062
:1007C00000201F5E1980002FDCDA1400A379002BB3
:1007D00000D110E70023A37126000823E15E08364C
:1007E0004B1C00D12CE70800A246656902E03E00E0
:1007F0004B1C1AD04B005B18DB00EF180A008C462C
:10080000E95E7B881BB2002BF1DA01235B42DC1727
:10081000BB60FC60824205D0534631801B893B801F
:1008200053461A8160464B1CE4D15446E5E6A36862
:100830006345B7D9C2E76B1C00D0EAE6F8E65B4631
:1008400058461B69984700281BD153461B882269CC
:100850002381EFF3108372B611680029FCD0BFF337
:100860005F8F514662880A8022696580BFF35F8F7F
:100870000021116083F31088B4E6864200D8F8E6C0
:10088000B0E65B461A685B680092019307E7B345E0
:1008900000D848E74CE7C046F00500203C70054012
:1008A000A90500100040054070B52E4C2569002DAB
:1008B00004D00A212C48FFF72FFE70BD2B4E0321D8
:1008C000300000F00DFAE660FFF7BEFD284B032272
:1008D0009C46D02322701B061B6801216370254BA8
:1008E0006044A3600F23800020610220638063695D
:1008F0004942A18019800231198647311D8358521F
:1009000018315A5275325C39995218320131995264
:100910001832013199521832013199520835183282
:100920009D520231183299521832013199521832BF
:1009300001319952183201319952183201319952CC
:100940001832013199520C4B0C49DC600130356290
:10095000FFF7B8FD01210320FFF7A2FD084B1D6042
:10096000A7E7C046F0010020040600200040054033
:1009700040000034FFFF1000F0050020A905001022
:100980003860054070B501000469EFF3108C72B651
:1009900020680028FCD0BFF35F8F02200D5E4C69F9
:1009A00068004019C00024180869002D36DB26882D
:1009B0004E80BFF35F8F002606608CF31088E360E3
:1009C00063880498013320615B0405985B0CA26086
:1009D00060611A1C002B1FD093B228046280184358
:1009E0000A69EFF3108C72B61368002BFCD0BFF3CA
:1009F0005F8F8B8823808D800B69BFF35F8F002210
:100A00001A608CF310880B7801329A40CB68084941
:100A10008C4663441A6070BD0122DDE7BFF35F8F2F
:100A2000002303608CF3108801204042F3E7C046A6
:100A30003C20000010B543890A1493421ADD53008C
:100A40009B184269DB00D3180469EFF3108C72B66F
:100A50002268002AFCD0BFF35F8F5A88090494B241
:100A6000090C8A4208D00369BFF35F8F00221A6025
:100A70008CF31088002010BD8022120214435C8089
:100A8000012302698371BFF35F8F002111608CF332
:100A90001088044902788C469340C2680120624461
:100AA0001360E8E73C200000F0B5C64600B582B010
:100AB000040000F027F9FA2206000F0020000023AE
:100AC0000021920001F078FA8019794104000D1E8E
:100AD00002DA01242E4D644206267642F7173619B3
:100AE0006F41AF4214D811D000F00CF932003B0036
:100AF000121A8B41002B15DC002B46D02000290058
:100B000000F03EF902B080BCB846F0BDA642EBD979
:100B10000026002700F0F6F832003B00121A8B4145
:100B2000002BE9DD00F0EEF832003B00121A8B4199
:100B3000002B0ADB00230193164B3200009316486A
:100B40003B00FFF71FFF0130D8D000233900B0462B
:100B50009C46124A1248536A994204D8966A4645FE
:100B6000CCD29942CAD10668EFF3108772B63368C7
:100B7000002BFCD0BFF35F8F0368BFF35F8F664627
:100B80001E6087F3108820BFE5E7002AB6D0C9E7CA
:100B9000FFFFFF7F79050010F001002000400540B5
:100BA00004060020F0B54546DE4657464E46E0B501
:100BB00004000D0085B0EFF305838946002B37D183
:100BC000434B9A461B6883422DD0424B9B46DB68C1
:100BD00098465B461B784046039300F08BF84246EC
:100BE000039B060004339B009B580F001B1A29002F
:100BF00020000022801BB9418A4228DC25D020BF7A
:100C0000354B586A48452ED3401B9A6A431E98417B
:100C10000023A2425B41184305B0F0BCBB46B2467C
:100C2000A946A046F0BD53465B688B42CDD1E6E7AE
:100C3000294900204B6AAB42EED38A6A5B1B591EDE
:100C40008B41A24240411843E6E78342D7D900F0E6
:100C500059F822002B00121A8B41002B05DA1E4A8C
:100C6000536A4B452AD20020D6E7002301931B4B41
:100C70002200009358462B00FFF784FE011EEEDD94
:100C800053461C605D60144B5A6A4A4514D39B6AF4
:100C9000A3420FD35846FFF7CDFE0F4A0020536AF8
:100CA0004B45B9D3926A5B1B591E8B41A24240410E
:100CB0001843B1E74A45EDD120BFEBE70020926A27
:100CC0005B1BA24240415A1E93411843A4E7C04611
:100CD000E8010020F00100200040054079050010E7
:100CE00010B5024A0248FFF78DFB10BD303F0010DF
:100CF000B80500200300416A0A00986A596A8A42CE
:100D0000FAD17047034B596A0A00986A596A9142AE
:100D1000FAD170470040054070B504000D00174A35
:100D2000536A1900966A536A8B42FAD1300019004F
:100D300024184D41AB4216D813D0104B2A005B6AE1
:100D40009D4203D90D494B6A9342FCD3934207D18C
:100D50000A4A02E0516A994202D1916AA142F9D34A
:100D600070BDA642E9D9054B5B6A1C005A1CEFD046
:100D7000012201246442E5175242E3E700400540A6
:100D8000064A536A9942FCD807D1044B02E05A6ADA
:100D9000914202D19A6A9042F9D8704700400540CA
:100DA000F8B5DE464E4657464546E0B58B4605004B
:100DB0000A991800160000F0DBFA0A9B6C001F026B
:100DC000324B64199C46A4006444636881469F4288
:100DD00000D967602B1FDBB29846012B30D9C023A6
:100DE00080229B01E31812011A60294BAD0059596A
:100DF0009A4600291BD17301E026226853401E4009
:100E0000802342465B01E3181E60012A30D980230B
:100E100080229B01E31812011A6053464A4667601C
:100E20005A51F0BCBB46B246A946A046F8BD586927
:100E300000F09EFA013043001B18033BFDD2DAE7B5
:100E40005B46012BCBD1C02303229B01E3181A6020
:100E5000023AA3681A42FCD07301E0262268AD0072
:100E600053401E4080230A4A5B019246E3181E60ED
:100E70005A462168514003220A401A6001225B460B
:100E80009A40A3681A42FCD0C1E7C04600800040E7
:100E9000BC050020F0B546464F46D646C0B51F00FB
:100EA000344B44009C462418A4006444636888467C
:100EB0001600FF2B02D880235B006360031FDBB2A8
:100EC0009A46012B30D9C02380229B01E3181201DE
:100ED0001A60294B85005959994600291BD1730185
:100EE000E026226853401E40802352465B01E318EF
:100EF0001E60012A30D9802380229B01E318120151
:100F00001A6080235B0063604B465F51E0BCBA46C9
:100F1000B146A846F0BD586900F02AFA01304300F6
:100F20001B18033BFDD2DAE74346012BCBD1C0238C
:100F300003229B01E3181A60023AA3681A42FCD00C
:100F40007301E0262268850053401E4080230A4A30
:100F50005B019146E3181E6042462168514003221E
:100F60000A401A60012342469340A2681342FCD013
:100F7000C1E7C04600800040BC050020014B800056
:100F8000C0587047BC050020F8B5040021481E0079
:100F900017000D0000F0ECF90100380000F0E8F94E
:100FA000069B36041B031E432368002B20DB1A4BD1
:100FB0001A49E3185A1E93418022920194465B42DB
:100FC0001B0B174A1B0363441360164A13601F0070
:100FD0000A689743FBD1144B2560E2182123A060D7
:100FE00013602368002BFCDA0823E6601360F8BD69
:100FF0003F2322681340AB42D9D1A3681B051B0DC8
:101000008342D4D1EE22E368D2021340B342CED160
:10101000EDE7C046001BB7000040FDBF08C0004020
:1010200000E0004000F00040043000008023024A4D
:101030009B000B43D362704700800540002310B52E
:101040000100988A1B8B984710BDC046162310B527
:101050000100188802331B88984710BDF8B5474631
:10106000CE4680B50F1E18D01423994604330400D1
:101070000025012698464B461888434621681B8860
:10108000984701C4431E984101350640AF42F2D152
:101090003000C0BCB946B046F8BD0126F8E7C046EE
:1010A000AA23064A1B0113608D235B00D360044909
:1010B000044B19605368002BFCDA70470040024073
:1010C00000B0FA00006002407047C04610B5014809
:1010D000FFF780F9543F001070B5074D074EB54239
:1010E00009D20024013E761BB60808CD984723009C
:1010F0000134B342F9D170BDC83E0010043F001066
:10110000054B064A06491A60064A074B1A6010004A
:101110000B689843FBD1704700E00040BFCDFBFE59
:1011200008C00040FE7F3C0000F00040044BDB6C38
:10113000002B03D18022034BD2021A607047C046B5
:10114000000011504C201150044A054B1A60054A0A
:101150001368DB018033FBD17047C046FFFFFF01FE
:1011600000F0004008C000404022034B9A675A67D5
:101170001A67DA667047C04600F0014010B5FFF705
:101180006FF910BDF8B52749274C284D641AA408FB
:101190002200302C00D930222800920000F076FF87
:1011A0002F2C3BD830202F21A700EB195B07204ABA
:1011B000001BDB0F091B052916D92600002B01D0C7
:1011C000EA51661CC01AE3189B004108EB18C900DD
:1011D000C9181A605A6008338B42FAD101230342BE
:1011E0001CD098438419A700EA51631C2F2C15D0FA
:1011F0009B00EA50A31C2E2C10D09B00EA50E31C4D
:101200002D2C0BD09B00EA50231D2C2C06D09B00CC
:10121000EA50631D2B2C01D09B00EA50054B9D60CA
:10122000F8BDC04600010010C00100100000002001
:10123000C101001000ED00E0002310B5294C82B080
:10124000A367FFF72DFF0122274B1A60636C012B68
:10125000FCD10322254B1A60224A936B012BFCD14F
:10126000013300930121224A22480433FFF78CFE08
:10127000052301210093204A2048FFF785FE002224
:10128000022104201E4BFFF705FE0022012105204C
:101290001C4BFFF7FFFD0022002107201A4BFFF730
:1012A000F9FD002200210820174BFFF7F3FD8023F2
:1012B000DB000093002200210920134BFFF770FD93
:1012C0000022104B00210620FFF7E4FD0420FFF769
:1012D00055FE0E4900F04CF801000020FFF7A6FE75
:1012E00002B010BD008000403CB0004030B0004073
:1012F000002F685900800240008C864700C00240E1
:10130000001BB70040597307006CDC0240420F001D
:1013100001480421014B1847100200205D10001005
:10132000124A936F9B0815D29066D166002905D0AA
:10133000FFE7FFE7FFE7516F106F704704B58021AB
:101340000906C2175140002800D0C84302F0B4FD7E
:10135000002104BDF0B5146E556E576F166FFFF780
:10136000E3FF1466556657671667F0BD000000D0AE
:10137000114A936F9B0813D210665166002905D05D
:10138000FFE7FFE7FFE7516F106F704704B50028D4
:1013900001D00020C04302F08FFD002104BDC046F3
:1013A000F0B5146E556E576F166FFFF7E5FF1466B4
:1013B000556657671667F0BD000000D094464A4A4C
:1013C000926F9208624601D228E0C046F0B5464EC0
:1013D000346E756E776F366F00F020F89446424A8F
:1013E00014665566576716676246F0BD94463E4AD6
:1013F000926F9208624601D254E0C046F0B53A4E70
:10140000346E756E776F366F00F04CF89446364A3E
:1014100014665566576716676246F0BD002B24DBDD
:1014200011D000293EDA00B5C943404200D1013154
:1014300000F038F8C943404200D10131DB43524249
:1014400000D1013300BD002AEBD1002801D10029D1
:1014500005D00020C90FC90701D1C043410800B51C
:1014600002F012FD0022002300BD00B500290ADBB6
:10147000DB43524200D1013300F014F8C94340422B
:1014800000D1013100BDC943404200D10131DB43ED
:10149000524200D1013300F005F8DB43524200D143
:1014A000013300BD002923D1002B18D1002A0CD014
:1014B000BC460D4F38667A6600210023FFE7FFE740
:1014C000FFE77A6F386F67467047002801D00748FA
:1014D000010000B502F0D8FC0022002300BD02008C
:1014E0000B00002000217047000000D0FFFFFFFF2D
:1014F000002B00D0BFE0130C28D1002AE7D080B425
:10150000114F39667A66FFE7FFE730B4040C7B6F52
:10151000396F1B0423433B667A66FFE7FFE7FFE76B
:10152000C04684B27B6F3D6F1B0423433B667A66E3
:10153000FFE7FFE7C04600232C042D0C7A6F386FBD
:1015400000196941B0BC7047000000D0F0B5944666
:101550000025140E01D112020835140F01D1120119
:101560000435940F01D192000235D40F01D15200FD
:101570000135D40B0134254F7C66254C3C660E0C9E
:1015800093B2FFE7FFE7FFE73C6F6643360C770354
:10159000BE467343DF0B5B04C01AB941130C73439F
:1015A000DB18C91ACE086643360CB64493B27343AF
:1015B0001F0F1B01C01AB941130C73431F0B1B05EE
:1015C000C01AB941860D8F023E436643360C092D81
:1015D00024DB520A7243801A7703460A6643360CAC
:1015E00016235B1BDE40DF40BF1964466643821B47
:1015F0007046043506330100D940A840C01900D315
:101600000131A24206D20023F0BD0000000000D04C
:10161000FFFFFFFF121B0130F3D3F1E709277F1B08
:10162000FE406446A2B27243801A00D20139220CF5
:101630007243130C1204821A99410B007046043550
:1016400013370100F940A840801900D30131002B65
:1016500002D1A2420AD2F0BD013000D30131121BE7
:10166000FAD2013BF8D1A24200D2F0BD013000D342
:101670000131121BF7E7F0B51C0C00D080E00CB470
:1016800000251C0A04D11B02160E33431202083532
:101690001C0B04D11B01160F3343120104359C0BA4
:1016A00004D19B00960F334392000235DC0B02D12C
:1016B00092185B4101351C00971864410134464F74
:1016C0007C66464C3C660E0CFFE7FFE7FFE7C04632
:1016D0003C6F6643360C7703BE4697B27743C01B18
:1016E00000D20139C01B00D201399FB27743C91B18
:1016F000C91B170C77437E04FF0B801BB941CE0832
:101700006643360C0C2D33DBB644120B1F053A43EF
:101710001B0B97B27743C01B00D201399FB27743AE
:10172000C91B170C77433E043F0C801BB941860D43
:101730008F023E43664329277F1BFE400C3D7746C0
:10174000AF40BF1930BCA2B2ABB272437343801A30
:101750009941220C7243130C1204801A9941020021
:101760000B000137001BA941F9D2781E0021F0BD02
:101770000C277F1BFE4077467F0BAF40FF19E0E749
:1017800000245D1C07D0144F7D663966FFE7FFE734
:10179000FFE7FFE73C6F95B29EB265436643401B8F
:1017A000B141150C1E0C6543664336042F0C3E43B5
:1017B0002D04401BB141994204D202000B002000CD
:1017C0000021F0BD01D19042F7D3801A9941013434
:1017D0009942F2D3F6E70000000000D0FFFFFFFFC0
:1017E00048404140484018B41B4B5B68FC4601939D
:1017F00008BD04DF8B1A001018B4174B1B68FC4699
:10180000019308BD00DF951A00109446134A926FA9
:10181000920809D2624618B40F4BDB68FC4601936C
:1018200008BD0CDF4D1D00100C4AF0B5146E556E4E
:10183000576F166F6246FFF7EEFF084A146655664B
:1018400057671667F0BD18B4034B9B68FC460193BD
:1018500008BD08DFF11B0010B8030020000000D015
:10186000FFB550404240504059404B40594000E085
:10187000FFB5154F4C00640D03D0BC4204D10C03DE
:1018800014D80020090D09055C00640D03D0BC428A
:1018900004D11C030AD800221B0D1B0501264B4056
:1018A00009D44B4003D58B4200D18242FFBD9942FF
:1018B000FCD19042FFBD0B43DB1803431343F5D02B
:1018C000C9434918FFBD0000FF07000000B5FFF73E
:1018D000CFFF804100BDC04600B5FFF7C9FF01D969
:1018E000002000BD012000BD00B5FFF7B9FF01D900
:1018F000002000BD012000BD00B5FFF7B1FF804111
:1019000000BD012040054A00121804D85A001218E0
:1019100001D80020704701207047000000210028F6
:1019200005D17047C1174840401AFAD0C90713B50E
:10193000064B1B6898470CBC441CA2401005120BB8
:101940000349091B09051943114310BD0006002076
:101950001F04000010B54C00620D8023D218DB007C
:10196000D21A5B057E2A10DD9E3A13DACC170903E2
:10197000490819435242D140640001341532202AEB
:1019800005DAD0400843604310BD002010BD084672
:10199000604310BDC80FC018013810BD18B4044B07
:1019A0005B6AFC46019308BD24DFFD1E00100000A9
:1019B000B8030020132370B51D78012D19D014DD54
:1019C0001F48FFF743FB06001E48FFF73FFB1E4C76
:1019D00080223100200000F059FB022D2DD01B4841
:1019E000FFF72CFB1A4B186070BD1A4B164CA36402
:1019F000F5E7184B144C23606360A360E360236138
:101A00006361A361E36123626362A362E3622363B0
:101A10006363A363E36323646364A364E364236590
:101A20006365A365E36523666366A366E366236770
:101A30006367A367E367A364D1E7064BA364CEE7BC
:101A40005344000053460000B80300204C3300000C
:101A500000060020591A001007B5604601880A0ADE
:101A60000230DF2AFAD1C9B2820804D30288408842
:101A70000004104300E00068014A5050039007BD85
:101A8000B80300200FB403BC0CBCF0B50124E4077C
:101A9000634000E0F0B50C0DCF0F661E3605891BC4
:101AA000640503D3C943404200D30131640D03D020
:101AB000661CF60A07D0E41B00207F00791C89070A
:101AC0008912803C24031D0DDF0F6E1E36059B1B03
:101AD0006D0503D3DB43524200D301336D0D03D0B8
:101AE0006E1CF60A07D0ED1B00227F007B1C9B07B3
:101AF0009B12803D2D032F1B661B58D4A446202E1D
:101B000046DA20371400BC401D00BD40F24033418E
:101B10002A4380185941CB0F05D0C943C043002246
:101B200064425041514162464D0D28D10D0D07D1FF
:101B300000281FD0241940414941013A0D0DF9D028
:101B4000640006D3013000D30131002C01D14008DC
:101B50004000013A0BD4941CE40A04D1120511444C
:101B6000DB071944F0BDD907204B194300E0D90722
:101B70000020F0BD0029DDD1002CDBD1F0BD013209
:101B8000C6074008CD0728434908002EE1D0D9E711
:101B90003C2E29DA203E40371400BC4000D00124FE
:101BA000F24014431A00BB401C43D317ACE7AC46C9
:101BB000202F08DA20360400B4400D00B540F8406C
:101BC00039412843A5E73C2F0CDA203F403604007A
:101BD000B44000D00124F84004430800B1400C4355
:101BE000C117EAE710001900002494E70000F07F15
:101BF000F0B50C0D661E3605891BE60A6405640DFA
:101C000002D0651CED0A04D0002001210905803CAA
:101C10002403A4461C0D671E3F05DB1BE70A640571
:101C2000640D02D0651CED0A04D0002201231B05BF
:101C3000803C24037740644497B484B296B27443E2
:101C4000070C7E43150C6F4380B26843361802D3ED
:101C5000012000043F183004350C00197D418446F2
:101C600088B29AB250430C0C62431F0C7C438EB274
:101C70007E43921902D301263604A4191604170CC8
:101C80003618674101BC81B29AB25143040C6243D9
:101C90001B0C5C4380B25843121802D3012000048D
:101CA00024181004130C401863412D185E410020C5
:101CB000474106BC88B293B258430C0C6343120CE4
:101CC000544389B251435B1802D3012109046418BB
:101CD00019041A0C091862416D1856410020474139
:101CE00018BCF902720D1143F0026A0D1043ED02A7
:101CF0000A0D03D16D1940414941013B124E9B1B16
:101D00007600B3420ED26D0007D301300026714138
:101D10006646354301D1400840001B05C918E40759
:101D20002144F0BD0BDA013306D1013004D1013179
:101D30004F0D01D04908F2E7E1070020F0BD013660
:101D400031050020EBE70000FF030000F0B51C0D9B
:101D5000671E3F05DB1BE70A6405640D02D0661CA5
:101D6000F60A04D0002201231B05803C2403D02561
:101D70002D060026F6432E661E096E66CE0FF61956
:101D8000B44649004F0D02D07E1CF60A03D0002055
:101D90000021403F3F033E1BB600B444013F7F0596
:101DA000C91B49082E6F013676089C02950D254304
:101DB0007543ED137543AD1301356D10F603761BB6
:101DC0000CB4CC02450D2C43A2B2B3B25A43270C3B
:101DD0007B43350C6F43A4B26C431B1902D301241F
:101DE00024043F191C041D0CA4187D4124196D41C5
:101DF000009A91B2ACB26143170C7C432B0C5F4349
:101E000092B25A43A41802D301221204BF1822042A
:101E1000230C52187B41019C6C431B19520ED901B3
:101E20000A434401A01A81B2B2B2514303145A4387
:101E3000360C734387B27743D617D21900277E41F9
:101E400036049B191704160C7F185E417316ED18A3
:101E5000F301002680337541A90F06D16400690A99
:101E6000E8055B0A184309D22FE00422944480332A
:101E70007541A90AA8059B0A184326D34041494148
:101E80002404009A019B0D005543641B4343E41A4C
:101E900095B286B27543170C7E43030C5F4392B232
:101EA0005A43B61802D301221204BF183204330C6D
:101EB00052197B4152429C41002C02D40022013035
:101EC00051414008CA071043490802B06246D7078B
:101ED0009210084BD218084B9A4203D21205891867
:101EE000C919F0BD0020002A01DC3900F0BD013322
:101EF0001905F5E7FD030000FE070000002200B50C
:101F0000203200F004F8080000BD000000220B158C
:101F10000AD410B5944600F031F81414013400DAF4
:101F20000021CB17144C2047002000217047624449
:101F3000343A0CD40C2A07DA040091409040524203
:101F40002032D440214310BDD843D94310BD2032A4
:101F500007D40C469440524220321141D0402043D5
:101F600010BD0800C917203203D45242203210415C
:101F700010BD1800190010BD2F1F00100A0DCC0F46
:101F8000531E1B05C91A520503D3C943404200D34F
:101F90000131520D03D0531CDB0A07D0121B002065
:101FA0006400611C89078912803A1203014BD21A1E
:101FB00070470000FF03000051434343C9188C469B
:101FC000110C83B24B4310B4040C614392B280B243
:101FD000504362431C041B0C001910BC59411304EC
:101FE000120CC0185141614470470000132310B512
:101FF00012481C78FFF72AF80100012C0AD003DDF3
:1020000080220F4800F042F80E48FFF717F80E4BF9
:10201000186010BD0A4C5422200000F037F80B4B1A
:102020006365A365E36523666366A366E36623676A
:102030006367A367E3672362E361E5E75346000054
:10204000B80400204C33000000060020512000108E
:1020500007B5604601880A0A0230DF2AFAD1C9B200
:10206000820804D3028840880004104300E000681E
:10207000014A5050039007BDB804002001480421D4
:10208000014B1847200200205D100010014B5B68D7
:1020900018470000200200207047C046F8B5574698
:1020A000DE464E464546E0B599460A9B07009A46ED
:1020B0000D9B884693460B9C9B073BD10C9B9C42F7
:1020C0003DD21E1B0B9415000C005E442A004B46AB
:1020D000013521002020B847B542F7D1A0460B9C1E
:1020E000002C20D0454636195346321B013C185D62
:1020F00029004B46B847002CF6D12B0035009846F6
:102100000D9B9B070FD55B46EC1A0C9BA3420AD98B
:10211000464698462A004B46310020200134B847F5
:1021200001354445F6D32800F0BCBB46B246A9466B
:10213000A046F8BD16001500002CD3D1E0E716002C
:102140001500002CCED1EEE7F0B54546DE465746E9
:102150004E46E0B585B09C4610AB1B78149F934665
:1021600098460F9C129E139DBB074CD4002D42D164
:10217000B44248D201233B4099460E9B013B9A460C
:10218000302304E0524601341355A64201D9202CD5
:10219000F8D14B46002B00D183E00E9B013B9946C2
:1021A0003023A54205D82EE04A4601341355AC42EF
:1021B00029D0202CF8D1FB060CD57B0554D4A6429F
:1021C00063D0A54261D0119B102B50D0022B57D069
:1021D000202C32D1202301930E9B5A460093039763
:1021E00063460295FFF75AFF05B0F0BCBB46B24606
:1021F000A946A046F0BD01233B40994601233B423E
:102200002AD1B442B9D3FB061CD57B05DBD4002C04
:10221000D5D1119B102B5BD0119B022B6BD030239F
:1022200001240E9A13704346002B10D17B073ED534
:102230002B260E9A631C1655CDE723000134302659
:102240000E9AD654202CC5D04346002BEED02D2616
:102250000E9A631C1655BEE74346002B2FD0013D56
:10226000B44200D289E798E7119B102BB2D1BB068C
:1022700037D5202CAED058230E9A13550134A7E73A
:10228000202CA7D02300013407E0631E012CC0D00E
:10229000119A102A31D0022AD1D162260E9AD65430
:1022A00096E7FB06CED57B0500D488E78BE72300B5
:1022B0003E0790D520260E9A013316558BE70C2346
:1022C0003B405A1E9341ED1AB44200D255E764E7F1
:1022D000BB060ED478230E9A022413703023537059
:1022E000A1E7202C00D175E778230E9A135501340D
:1022F0006EE75823EFE76033EDE70E9AA61E91468E
:102300004E44BA0602D55822327098E778223270CD
:1023100095E7C04610B5002800D110BD01F0ACFC17
:10232000FBE7C0460B0010B5002802D049681B68C7
:10233000984710BDF0B55746DE464E464546E0B5D7
:1023400095B083460F00924698461E9A1F9B100038
:102350001900209EFFF7D5FA002800D0EAE11E9868
:102360001F990122C54B5242FFF7B0FA002800D056
:1023700014E11E981F990122C14B5242FFF7BCFA8B
:10238000002800D0E9E01E981F990022BD4BFFF7FE
:10239000B3FA002800D0C8E01E981F990022BA4B5B
:1023A000FFF794FA002800D0BFE01E981F99002282
:1023B0000023FFF78BFA002800D0E4E000230B9302
:1023C000229B5B0500D406260024302307E017215A
:1023D00006AA013452181355013E202C01D0092EB3
:1023E000F5D81E981F99FFF7B5FAA84BF2009B1875
:1023F0001A685B68050008920993FFF793FA0200D8
:102400000B001E981F99FFF7EEF9089A099BFFF73A
:102410001AFA06900791FFF7C1FA8146FFF77EFA94
:1024200002000B0006980799FFF7DDF90022984B90
:1024300006900791FFF760FA002800D10DE1012313
:102440009C46E1444846FFF769FA02000B000898F1
:102450000999FFF741FA002802D000239946013577
:10246000002E00D1D9E006954D46B94614E006AAE3
:10247000944617230A216344280001341F19FEF7EC
:1024800077FF3031397028000A21013EFEF770FFD6
:10249000092D00D817E10500202CE8D14F46069DF4
:1024A00020240CAE06AA17239446634499465B4643
:1024B000B34606930FE04B4628000A210134E61884
:1024C000FEF72EFF3031280031700A21FEF728FF79
:1024D000051E00D1E4E0202CEDD1069B5E469B4614
:1024E0000323229A1340012B18D1219B002B15D0D6
:1024F0000B9B002B00D1FDE0219B013B2193202B66
:102500000CD93023219A07E0172006A901340918B5
:102510000B55944200D3CCE0202CF5D1229B0194A2
:102520000393219B0096029322E0229B5246049340
:10253000219B3900039358461E9B1F9C02960093D3
:102540000194434600F04AF90400200015B0F0BCA5
:10255000BB46B246A946A046F0BD229B5B070FD4FE
:1025600003224C4B229901920391219900930291ED
:102570004346524639005846FFF790FD0400E4E711
:102580000422454BEEE71E9A1F9B00200021FFF717
:102590002AF901231E901F910B9311E7229B5446A9
:1025A0009B0711D1219B042B0ED9219B55469C469C
:1025B0005E46043C64442A0043460135390020202D
:1025C000B047A542F7D1B346344D26002B1F99469C
:1025D0005B46A3461C003200E87843463900013DC3
:1025E000A04701364D45F6D123005C469B46229B11
:1025F00004349B07A9D55346219AE31A9A42A4D9D9
:102600005E4615002200434639002020B04753465D
:102610000134E31A9D42F5D897E72800FFF782F9C5
:1026200002000B001E981F99FFF7DDF80022184BDF
:1026300006900791FFF74AF90CAE002800D031E769
:10264000069807990022124BFFF756F9002800D090
:1026500028E7012301359D4324E7002206980799C6
:102660000B4BFFF733F9002800D0F9E64B46002B5F
:102670005CD101239C46E144F2E6C046FFFFEFFF38
:10268000FFFFEF7F65CDCD4165CDCDC1B0410010DD
:102690000000E03FAC3F0010A43F0010B43F00102A
:1026A000069B5E469B460323229A1340012B00D1D2
:1026B00081E0202C00D131E70B9B002B27D02D236C
:1026C000335501342AE74F46069D202C00D1E7E61A
:1026D0003022331907E0172006A9013409180A55DA
:1026E000202C00D1DCE6A342F5D12E220CAE013421
:1026F000F254D7E60C23229A134257D0219B013B78
:102700002193A34200D9FCE6202C00D106E7229BAE
:102710005B0703D52B2333550134FFE6229B1B07B0
:1027200000D4FBE6202333550134F7E6DB0700D461
:1027300096E69EE7229B55469B0711D1219B032BD2
:102740000ED9219B54469C465E46033D65442200BB
:102750004346013439002020B047AC42F7D1B3469C
:10276000B9465F461C4EEC1C2A00B07843464946E9
:102770000135B847013EAC42F6D1229BBB464F46DD
:102780009B0700D4E1E65346219AE31A9A4200D807
:10279000DBE65E4615002200434639002020B047A4
:1027A00053460134E31AAB42F5D3CEE6219BA34254
:1027B00000D9A6E6B2E6219B002B00D179E70B9B5E
:1027C000002B97D0219B013B21939C4200D298E69D
:1027D000202C00D073E7A1E6B03F0010F0B5DE4634
:1027E00057464E464546E0B599B081468B469246DF
:1027F0009846229A239B10001900FFF782F80028C0
:1028000000D0CAE0229823990122824B5242FFF75E
:1028100073F8002800D0C0E02298239901227E4B53
:102820005242FFF753F8002800D0B6E022982399CF
:1028300000220023FFF74AF8002800D0C9E1229BBC
:10284000239C08930994089809998023269ADB0011
:102850001A400D928022269C1201144022000B94F3
:10286000269C07000E001C4200D0ADE00B00034385
:1028700000D0D5E0002A00D00AE2220006332493DB
:10288000022313400C930223134200D002E2259B43
:10289000042B00D20FE2043B0B93002304250A9380
:1028A0000022229823990023FFF710F8002800D077
:1028B00003E25A4B269A134004930B9B0393249BE9
:1028C0000293089B099C0093019459464346524643
:1028D0004846FFF72FFD02002020269B1F270340BC
:1028E00059424B415B421840531C0893594643469A
:1028F0004530C8470A9AD317D4185C40D30F0A93BF
:102900006B1E0B9308AB9C460025674401E0202D0D
:102910000FD020000A21FEF72BFD01357E19303142
:10292000317020000A21FEF723FD26000400092E45
:10293000EDD8052306930B9B59460593002304937A
:102940000A3303930A9B4846029310AB0093089AFC
:1029500043460195FFF7F8FB0C9B002B2DD0534607
:10296000C41A259BA34228D94D465F4681461E00C6
:10297000534639001A19202043460134A847A6427D
:10298000F6D8534648462599C21A0132002391428F
:1029900000D386E1013018180FE0269B0493259B95
:1029A0000393249B0293229B239C00930194434610
:1029B000524659464846FFF7BDFC19B0F0BCBB462D
:1029C000B246A946A046F0BD01432BD10B9B220085
:1029D000002B00D154E700230A93249B0A9A002479
:1029E000934200DD85E12298239900220023FEF71F
:1029F0006DFF002800D035E1269B084A02941A405A
:102A00008023DB0013430493259B0393089B099CBD
:102A1000CBE7C046FFFFEF7FFFFFEFFFFFF7FFFFB2
:102A200006232493B44B70009C46400D6044FEF78F
:102A300079FFB24AB24BFEF706FFB24AB24BFEF73D
:102A4000DBFE3603B14B360B334304000D00380078
:102A500019000022AE4BFEF7C6FEAE4AAE4BFEF7A3
:102A6000F2FE02000B0020002900FEF7C5FEFEF773
:102A700071FF0A90FEF756FFA84AA94B04000D000B
:102A8000FEF7E1FE0022A74BFEF7B6FEFEF762FF5F
:102A9000A54A0600A54B20002900FEF7D4FE04003D
:102AA00030000D000C96FEF73DFFA14AA14BFEF74A
:102AB000CAFE02000B0020002900FEF794FE02006F
:102AC0000B0006000F00FEF7BEFE320004000D00F2
:102AD0003B0030003900FEF78FFE00220E900F9170
:102AE000954B20002900FEF790FE0022934BFEF745
:102AF00083FE02000B0020002900FEF786FE002264
:102B00008F4BFEF779FE02000B0020002900FEF734
:102B10007CFE0D008021040032003B000020C9052E
:102B2000FEF761FE02000B0020002900FEF764FEA4
:102B300002000B000E980F99FEF767FE0022734B00
:102B4000FEF75AFE7F4B0C9C9C46644400222305F2
:102B5000FEF779FE06000F0002000B0008980999A5
:102B6000FEF7B4FE00280AD00A9B3000013B390072
:102B70000A930022714BFEF748FE06000F000A9AE6
:102B8000330063323900C62A12D80222269804255F
:102B900010400B9A0C90002A25D1259B042B05D9B7
:102BA000002800D0A1E0259B043B0B93042541E0C5
:102BB0000222269810400B9A0C90002A12D1259BD5
:102BC000052B76D9002872D1259B0525053B0B9353
:102BD00034E0802212069446229B0893239B634490
:102BE000099330E605250B4300D1F6E608980999CC
:102BF000554A564BFEF778FE002808D008980999E8
:102C00000022534BFEF762FE002800D0E5E6249B2D
:102C1000002B1CD00D9B002B19D0249B013B24932F
:102C2000259BAB4204D90C9B002B5AD002230C935A
:102C300000230B930A9B002B00D131E608980999D9
:102C400032003B00FEF7E1FD0890099128E6259B44
:102C5000AB42EDD90C9B002B43D000230B930233E6
:102C60000C93E7E78020269B3A4A00061A4080230F
:102C700084460294089C099D2900DB0013430493B9
:102C8000259B6144220003930B00009201938EE682
:102C90000524A8E600230B930A93023304250C9322
:102CA000FEE553468C46013B63441B1A72E6022341
:102CB0000C930525C2E70423EDE58020089E099FBB
:102CC000000639008446269A224B6144134004933F
:102CD0000B9B32000393249B02930B000092019301
:102CE000F3E5259B5B1B0B93A4E7022304250C93C0
:102CF000A0E79C1A013C76E601FCFFFFFB799F50A0
:102D00001344D33FB3C8608B288AC63F0000F03F0E
:102D10000000F83F61436F63A787D23F71A3790931
:102D20004F930A400000E03F1655B5BBB16B02401F
:102D3000EF39FAFE422EE63F00002C40000024400E
:102D400000001840FF0300002D431CEBE2361A3F41
:102D500080842E41FFF7FFFFF0B5DE4657464E4612
:102D60004546E0B5A5B01E002E9B92460C93CD4A79
:102D7000CD4B80468B461A60002900D1EAE1002342
:102D800030789946002800D1ECE1C84B4C460B93B3
:102D9000C74B454657460E930AE0631C98462200EF
:102DA0003B005946A84744463078002800D187E0C8
:102DB00001362528F1D108239A46043B9946023B67
:102DC0009846013B00229C460D943078711C03000C
:102DD000203BDBB2102B03D80B9C9B00E3589F4693
:102DE0000300303B89460D9C092B3AD900239846B5
:102DF0002A2800D1C1E000239A462E284BD0030098
:102E0000683BDBB2122B1ED80E999B00CB589F4615
:102E100063460E001A43D8E743460E001A43D4E730
:102E20004B460E001A43D0E710230E001A43CCE79E
:102E300053460E001A43C8E780235B001A43FF3B4A
:102E40009C467078E1444E4667284FD82428A4D980
:102E50000300253BDBB2422B9FD896499B00CB5801
:102E60009F46002394461E0000E00131B3009B19E9
:102E70005B001E180878303E0300303B092BF4D964
:102E80000123624689469C460023B0469A460E00BE
:102E9000E1442E28B3D13021802049428C46C00025
:102EA000024370784B4684446146092900D86CE19E
:102EB0002A2800D17AE101239C464E46E1449EE750
:102EC000A146A846BA46CA4503D801235B425344EB
:102ED000994653464A4659460020C047200025B02F
:102EE000F0BCBB46B246A946A046F0BD0300693B14
:102EF000DBB20D930F2B00D94FE7012199408C468F
:102F00006D49894661464B4619400F9163464946D3
:102F10000B4200D028E10D9B0A2B3AD0072B00D0A2
:102F20003BE70C9B190008C98846002B00D14BE1F8
:102F300021200243914614A98C461F220F2162448E
:102F40008C4651460D950C91A24615000F9902E052
:102F500020290CD0130064461C4020003730092C77
:102F600000D80738013168541A090F2BF0D80C9B90
:102F700054460D9D9A460F9133E10C9B02CB884637
:102F8000002947DB0C9301239C4670784E46E144B0
:102F900031E70C9B02CB14935346002B00D138E150
:102FA0009C4608780B000C908C44002801D100F05E
:102FB00098FC89466146944603E05A780133002A1A
:102FC00001D08B42F9D1494662465B1A0C900F93AF
:102FD000530500D520E10223180010400D90134244
:102FE00000D1CBE30D930B1BB1469A465E460C987D
:102FF00022003B003100A84753460134185D0028E9
:10300000F6D1B3464E460D9B002B00D0C7E1149B72
:103010000C93C9E60C9301239C462838494202438D
:10302000884670784E46E144E5E670786C2800D119
:103030007FE180235B001A43FF3B9C46E14402E7AB
:1030400080239B001A4301239C467078E144FAE6F2
:103050007078682800D173E180231A437F3B9C4637
:10306000E144F0E6672800D103E1472800D15AE1A6
:10307000452800D15AE10492072142460C9B039255
:10308000073352468B43190002920CC92800009264
:1030900001930C9122003B005946FFF79FFB04006F
:1030A00082E6C046592D0010EC05002010400010AB
:1030B00054400010A040001041900000462800D16C
:1030C000DBE00492072142460C9B039207335246F1
:1030D0008B43190002920CC92800009201930C91B5
:1030E00022003B005946FFF725F904005CE6631C0B
:1030F000984622003B0059462520A847444653E6FF
:103100000C9B04330D93631C9946920700D422E173
:103110000C9B2200187859463B00A847434644447C
:10312000012B00D885E23300B8462E005F4625000B
:103130004C46994622004346013439002020B047CE
:10314000AC42F7D12C00BB46350047464E460D9B9E
:103150000C9329E6DB4B30789846002399460028EB
:1031600000D012E60024AEE66F2800D188E000D837
:103170000BE31023782800D1CFE09A430A239C4622
:1031800000230F930A330D9380E05646B10089194E
:10319000490001330E181878303E010030390929F2
:1031A000F4D9B2461E000133994628E60C9B02363C
:1031B00002CB8A46C9435046C917084082460C9341
:1031C0003078731C99461AE6102310009843113387
:1031D0001843814680201300C0000340024200D102
:1031E000A9E64B4606930823059353460493102300
:1031F0000393002302930F9B220001931CAB0093C7
:1032000059463B002800FEF79FFF434604000C93FD
:10321000CAE501235B42C3E60F9B534501D95346E0
:103220000F930223180010400D90134200D1B7E114
:103230000D93D1460B1B9A463300A1442E00220069
:103240004D460C98B9465F469B4608E04B46390010
:10325000541CB0475346185D002877D02200954291
:10326000F4D15B46BB464F46A94635004C461E008E
:10327000C9E680231B011A43FDE620231A4320E7F9
:1032800008239C4600230F9308330D9380231100DD
:10329000DB0019401A4200D116E10D239A431000B9
:1032A000802302009B001A401492184200D0C2E111
:1032B000802302005B001A4091460C9A04320F9260
:1032C000184200D0B7E2430600D59FE1030600D4C0
:1032D00019E30C9B1B880993002B00D0FCE11033F1
:1032E0009843002900D1F7E100239946434605930E
:1032F000534604930D9B069003930023D2E0582875
:1033000008D0622867D102239C4600230F93023322
:103310000D93BBE720231A43103B9C4600230F93D9
:1033200010330D93B2E780231B011A4320231A4365
:10333000A1E6C0239B001A43F31C9946B07882E5AE
:10334000C0231A43F31C9946B0787CE535005E46ED
:10335000BB464F4657E64346012B00D863E1631E48
:1033600043449A463300B9462E005F4655469B4675
:10337000A24622004B46013439002020B047AC421F
:10338000F7D135005E46BB464F46A14654460C9BDE
:103390004A46187859463B004444A847D7E6A14618
:1033A0000F9B984500D832E64444E41A3300B846EF
:1033B0002E005F4625004C469946220043460134C4
:1033C00039002020B047AC42F7D12C00BB46350075
:1033D00047464E461BE680231000DB0018401A4289
:1033E00000D10FE1112118008A430D920D9A80231C
:1033F00011009B0019408C461A4269D180231100AC
:103400005B00194089460C9904310F911A4200D093
:10341000CAE113005B0600D5F0E013001B0600D4E0
:1034200059E20C9B00229B5ED9175A184A4092B26F
:10343000D90F0C91002B00D1F9E1100014AA944689
:1034400042461F23149252466344A84616944D46A2
:103450000400B946B2461F00159201E0202D0FD09E
:1034600020000A21FDF784FF01357E1930313170CB
:1034700020000A21FDF77CFF26000400092EEDD86C
:10348000149B4F46A94645469846159B56469A4674
:10349000169C0D9B069343460593534604930A23BB
:1034A00003930C9B02934B4601931CAB22000093A9
:1034B00059463B002800FEF747FE0F9B04000C9383
:1034C00072E4C046992000100C239A431000E7E6EE
:1034D00007220C9B07339343013294469C44624677
:1034E0000C920CCBD90F0F911100194300D191E030
:1034F000D91713911291514010911399594011917C
:1035000010981199129A139B801A99411090119159
:1035100014AA0023944642469946149252461F33F9
:103520006344A846B24616944E46109C119DB94677
:1035300015921F0001E0202E10D0200029000A2241
:103540000023FDF753FF013630322B00BA550D0032
:1035500022000400002BEED1092AECD8149B109411
:10356000119545469846159B4F46B14656469A4694
:10357000169C0D9B069343460593534604930A23DA
:1035800003930F9B02934B4601931CAB22000093C5
:1035900059463B002800FEF7D7FD0400FFF704FC66
:1035A0000F9B984500D8C1E18023DB000D93434673
:1035B0000F9A1B199B1A994633002E004D46B946A7
:1035C0005F469B460C9122004B4601343900202077
:1035D000B047AC42F7D143460C9901330F930B78B7
:1035E00035000C935E46BB464F46002B00D10EE5DE
:1035F0000D9B002B00D1F6E4002319E60C9B1B78F1
:103600001A0015E710239A430D92EFE60C9B1B78E6
:10361000099361E6002399460028AAD100220023DD
:103620001092119374E70C9B2200187859463B00C6
:10363000A8474C468BE50C9AFA3BFF3B07329A436E
:103640000133994691444B460C9313685268159286
:103650001A4306D11032904300220992002900D06B
:1036600081E06122810600D54122D2B20A9214AAD9
:1036700091460A9A00210A3A1492424617925246FB
:1036800018925A460991B3461F311E000F9B4944B8
:10369000BA4619941A950024674698468946159D9E
:1036A00016901B920AE03032D2B24B4601341A55C2
:1036B000A8454AD0202C4AD006000D003A0000232D
:1036C00030002900FDF792FED2B2092AEBD9149BF3
:1036D0009C466244D2B2E8E76123820600D54123CA
:1036E000DBB20A3B0C93434614A91F228C46159368
:1036F00053466244A046B2464C461797A946170067
:10370000099D0D9E1490169308E03033DBB201340E
:103710003B55B5420ED3202C0CD0050031002800BB
:10372000FDF726FECBB20929EFD90C9A94466344E3
:10373000DBB2ECE7159B4D46A14644469846169BE6
:10374000564614989A46179FD0E5B742B2D9179BB0
:1037500057469846189B5E469A461B9B09949B4683
:103760001698199C1A9D43460593534604930D9B46
:103770000690039300230293099B05E70F9B98454E
:1037800000D914E701330F932DE41023110099435E
:103790000D91692800D0BAE080231000DB001840AA
:1037A0001A4200D122E61DE60C9B1B68DA0F1100BD
:1037B000002B00D18CE0DA179818504014AA9146DB
:1037C00042461F23149252464B44A046A9461697E0
:1037D00004006546B2461F000C91159201E0202DB1
:1037E0000FD020000A21FDF7C3FD01357E193031CD
:1037F000317020000A21FDF7BBFD26000400092ED0
:10380000EDD8149B444698460C9BAC461900159B7A
:1038100056464D469A46169F0D9B02910693434687
:103820000593534604930A23039363463CE600281A
:1038300000D02EE602E60C9B1B689946002B03D1B4
:1038400010339843002938D16123820600D54123E3
:10385000DBB20A3B0C9343461693534614A91F222E
:103860008C4617932B006244A0464D46B2461897EB
:1038700099461700149C0D9E159008E03033DBB27A
:1038800001343B55B5420ED3202C0CD0050031003D
:103890002800FDF76DFDCBB20929EFD90C9A9446AB
:1038A0006344DBB2ECE7169B149444469846179B9E
:1038B00056464D469A461598189F434605935346DB
:1038C00004930D9B0690039300230293149BEBE556
:1038D0000028A1D172E70C9B1B68D9175A184A40DF
:1038E000A6E580231000DB0018409C460F901A428A
:1038F0000FD00220030013400F93104219D0002371
:10390000A1460F934CE50C9B1B680993E4E40A0065
:1039100034E40223180010400D90134200D03EE51D
:103920004346002B00D042E6FFF771FB01330F93B3
:103930007FE463460D93F3E710B50C0084B0039465
:10394000012402A902900093034813006242FFF78A
:1039500003FA04B010BDC0462523001010B5094A73
:103960000300146884B0002C08D00122009106489E
:10397000524203A9A047012004B010BD00F0C6F9CF
:103980000020F9E7EC0500201523001000BEFDE73C
:103990007047C04610B5FFF7F9FFC04670B5FDF798
:1039A0009BFB074D074EB54209D20024013E761B12
:1039B000B60808CD984723000134B342F9D170BD51
:1039C000043F0010043F0010030010B50800110070
:1039D0001B68984710BDC046F0B5C64600B5437D8C
:1039E00007000C001600002B46D0002A17DD0B78CC
:1039F0000A2B24D000239846012E13D0012529003C
:103A0000635C01350A2B26D0B542F8D1464509DC66
:103A1000A419013C23780D3B5A4253413B7580BCAD
:103A2000B846F0BD4346E018A419F11A013C3B68C2
:103A3000984723780D3B5A4253413B75EFE7037D8E
:103A4000002BD7D102210F483B689847012EDFD0C9
:103A500001239846D2E7631E5B5C0D2BD4D08845CA
:103A600004DA4346C91AE0183B6898470221054822
:103A70003B68A8469847C7E70368110020009847AD
:103A8000CDE7C04600420010F8B50B680D005A1C87
:103A9000CB180A601871802A00D0F8BD0E4B1C6844
:103AA000002C15D00D4E0F1D02E02469002C0FD004
:103AB0002368002BF9D03368002B01D0A342F4D146
:103AC000200039002A68FFF787FF2469002CEFD116
:103AD00000232B60E1E7C046E4050020E805002054
:103AE000F0B54546DE464E465746E0B583B09146B2
:103AF0001C0080460D00FDF705F90023304A12181E
:103B00004B41002B02DA01222E4B52422E49080073
:103B10008A4600F0C1F907006B1C03D1404600F053
:103B200085F90500002C27D0284E294B1C68002C55
:103B300018D04B46002B21D1264B994602E0246930
:103B4000002C0FD02368002BF9D04B461B68002BAC
:103B500001D09C42F3D120002A004146B04724699D
:103B6000002CEFD1002F26D1280003B0F0BCBB46BB
:103B7000B246A946A046F0BD174ED6E7154B99466A
:103B80000A239B4602E02469002CEBD02368002B1B
:103B9000F9D04B461B68002B01D0A342F3D12A0079
:103BA00041462000B0476B465A462000DA71D91DC5
:103BB0000122B047E7E7504600F076F9D4E7C04667
:103BC00040420F00FFFFFF7F30020020D939001074
:103BD000E4050020E8050020C939001000207047E6
:103BE000F0B5CE464746040080B583B0FDF78AF8AD
:103BF0002600002736184F41002F02DA01261A4FFF
:103C000076421A4B1A4D994601AB98464B461C68B2
:103C1000002C03D116E02469002C13D02B68002B54
:103C200001D09C42F7D1A368002BF4D0012140467B
:103C300098470028EFDD4346187803B0C0BCB9466A
:103C4000B046F0BD0B4B5A6A974207D89B6AB34205
:103C500002D302204042F0E79742FAD1012000212E
:103C6000FDF75AF8D2E7C046FFFFFF7FE4050020CA
:103C7000E805002000400540F0B5CE46474680B537
:103C800083B06B460600DD1D2870FDF73BF800236E
:103C9000194A12184B41002B02DA0122174B5242EB
:103CA00017490800884600F0F7F8164B81461C6853
:103CB000002C14D0144F02E02469002C0FD023688C
:103CC000002BF9D03B68002B01D09C42F4D120009E
:103CD00001222900FFF780FE2469002CEFD14B461A
:103CE000002B05D1300003B0C0BCB946B046F0BDD2
:103CF000404600F0D9F8F5E740420F00FFFFFF7F94
:103D000030020020E4050020E805002070B5040022
:103D100000F08CF801230100050001222000FFF7CC
:103D2000DFFE084B1C68002C06D06368002B05D012
:103D300098472469002CF8D1280070BD2469002C14
:103D4000F3D1F9E7E4050020F0B5CE46474680B54B
:103D5000A3B004000D00FCF7D5FF0023274A12187A
:103D60004B41002B02DA0122254B5242254E3000F6
:103D700000F092F800232200019307002B00224854
:103D800001A9FFF7D9FD214B804699461C68019B8C
:103D9000002B1AD0002C2FD01D4D02E02469002CDE
:103DA0000FD02368002BF9D02B68002B01D0A34241
:103DB000F4D12000019A02A9FFF70EFE2469002C1D
:103DC000EFD14B461C6800230193002C06D063689A
:103DD000002B0BD098472469002CF8D1002F07D175
:103DE000404623B0C0BCB946B046F0BD2469ECE7FC
:103DF000300000F059F8F3E70194EFE740420F007C
:103E0000FFFFFF7F30020020893A0010E405002008
:103E1000E80500200FB400B583B004A901C90191E1
:103E2000FFF792FF03B008BC04B0184710B5830732
:103E30000AD00300032102E001330B4205D01A78B7
:103E4000002AF9D1181A10BD030019680C4A0D4C4C
:103E50008A188A4322420FD15968094A04338A18C2
:103E60008A43224208D15968054A04338A188A4392
:103E70002242F1D000E001331A78002AFBD1E1E7B9
:103E8000FFFEFEFE8080808001B40248844601BCB3
:103E9000604700BFCD01002001B40248844601BC48
:103EA000604700BF7101002001B40248844601BC94
:103EB000604700BFA501002001B40248844601BC50
:103EC000604700BFCD010020011100102D1100102E
:103ED000111300107D200010B5190010ED1F001007
:103EE0003912001049110010691100107D110010E5
:103EF0002905001085110010A9080010C910001034
:043F00007D0400102C
:103F0800756E6B6E6F776E20636F6D6D616E643A60
:103F18002025630A000000000A2A2A2A2050414E60
:103F28004943202A2A2A0A00486172647761726527
:103F380020616C61726D20256420616C726561641A
:103F48007920636C61696D65640000004861726482
:103F5800206173736572740052656C6561736500E6
:103F6800626F6F74325F773235713038300000001D
:103F7800322E332E300000007069636F000000009D
:103F88003133345F6C65645F6D6F64756C65000018
:103F9800536570203238203230323600666E692B15
:103FA80000000000666E69006E616E00666E692D25
:103FB8000000000006005250D3F07542603F001028
:103FC80006005250E182887F683F00100600525078
:103FD800ABB36053783F001006005250BBFF3CB6AD
:103FE800803F001006005250861C0302883F0010D4
:103FF800060052505422A29D983F001005005250CE
:10400800DE65F46898430010302E0010E02D001093
:10401800E02D0010282E0010E02D0010E02D0010DB
:10402800E02D0010E02D0010E02D0010E02D001014
:10403800E02D0010202E0010E02D0010182E00108A
:10404800E02D0010E02D0010102E00105030001050
:10405800462E001040300010462E00102A30001066
:10406800462E0010462E0010462E0010462E001038
:10407800462E0010462E0010462E0010382E001036
:10408800462E0010462E0010462E0010462E001018
:10409800462E0010382E0010EE3000109A2D001019
:1040A8009A2D00109A2D00109A2D00109A2D0010AC
:1040B8009A2D00109A2D00109A2D00109A2D00109C
:1040C8009A2D00109A2D00109A2D00109A2D00108C
:1040D8009A2D00109A2D00109A2D00109A2D00107C
:1040E8009A2D00109A2D00109A2D00109A2D00106C
:1040F8009A2D00109A2D00109A2D00109A2D00105C
:104108009A2D00109A2D00109A2D00109A2D00104B
:104118009A2D00109A2D001064300010BC30001049
:10412800643000109A2D00109A2D00109A2D00105E
:104138009A2D00109A2D00109A2D00109A2D00101B
:104148009A2D00109A2D00109A2D00109A2D00100B
:104158009A2D00109A2D00109A2D00109A2D0010FB
:104168009A2D0010FE3200109A2D00109A2D001082
:104178009A2D00109A2D00109A2D00109A2D0010DB
:104188009A2D00109A2D00109A2D0010FE32001062
:1041980000310010FE32001064300010BC300010F6
:1041A8006430001000000000000000000000F03F34
:1041B80000000000000024400000000000005940FA
:1041C8000000000000408F40000000000088C3404D
:1041D80000000000006AF8400000000080842E41C2
:1041E80000000000D01263410000000084D797410E
:0C41F8000000000065CDCD410D0A000064
:10420400BC3F0010C83F0010D43F0010E03F001036
:0C421400EC3F0010F83F001004400010C8
:1042200003000068EFF3108C72B60268002AFCD01D
:10423000BFF35F8F04229A56002A0BDB002900D0BF
:104240000A6000201B68BFF35F8F00221A608CF3A6
:1042500010887047D0221206126801201A71F1E707
:10426000F0B54F46D6464646C0B51F00D0231B06C4
:104270001B6804009A460023904699460BE0BFF362
:104280005F8F4946116083F310884046390000F083
:104290004FF800281AD12668EFF3108372B63568FC
:1042A000002DFCD0BFF35F8F257922687F2DE6D9E2
:1042B00051462171BFF35F8F0021116083F3108895
:1042C0000120E0BCBA46B146A846F0BD0020F8E7A0
:1042D00070B582B001A9040016001D00FFF7A0FF11
:1042E000002807D1D0231B0601991B7849B25BB285
:1042F000994201D102B070BD32002B002000FFF7BF
:10430000AFFFF7E70268EFF3108172B61368002B76
:10431000FCD0BFF35F8FFF2303710368BFF35F8F90
:1043200000221A6081F3108840BF70477047C04672
:1043300001B40248844601BC604700BFA50B0010D1
:104340001000000000000000FFFFFFFFFFFFFF7FE5
:10435000000000000000000000000000000000005D
:1043600000000000380200200000000000000000F3
:10437000503300004C33000054330000523300002F
:104380004D5300004D4300005334000043340000FF
:08439000000000000000000025
:04000005100001E9FD
:00000001FF
